:100000000C9462000C948A000C948A000C948A0070
:100010000C948A000C948A000C948A000C94CF04EF
:100020000C948A000C948A000C948A000C940E04A0
:100030000C948A000C948A000C948A000C948A0018
:100040000C946C030C948A000C94DC030C94B6039F
:100050000C948A000C948A000C948A000C948A00F8
:100060000C948A000C948A00000000080002010031
:100070000003040700000000000000000000000072
:1000800023002600290000000000250028002B0086
:1000900000000000240027002A00040404040404D3
:1000A0000404020202020202030303030303010227
:1000B00004081020408001020408102001020408F6
:1000C0001020F40411241FBECFEFD8E0DEBFCDBF57
:1000D00011E0A0E0B1E0ECEFFDE002C005900D9270
:1000E000A832B107D9F722E0A8E2B1E001C01D9221
:1000F000AB33B207E1F710E0C2E6D0E004C02197CD
:10010000FE010E94F106C136D107C9F70E94C5055C
:100110000C94FC060C94000090E0FC01E255FF4FAB
:100120002491FC01E656FF4F8491882399F090E0DA
:10013000880F991FFC01E057FF4FA591B491FC0176
:10014000EA57FF4F859194918FB7F894EC91E22B89
:10015000EC938FBF0895DC0170E0FB01E255FF4F87
:10016000E4911496EC93149750E0FA01E255FF4F96
:10017000E4911596EC93159766567F4FFB01849199
:10018000E82FF0E0EE0FFF1FEA57FF4F85919491A3
:1001900017969C938E931697FA01E656FF4FE491BB
:1001A000F0E0EE0FFF1FE458FF4F859194911996F0
:1001B0009C938E931897FB016491E62FF0E0EE0F6D
:1001C000FF1FE057FF4F859194911B969C938E9350
:1001D0001A978DE796E11D969C938E931C97089530
:1001E00090E0FC01E859FF4F2491FC01E255FF4FDC
:1001F0003491FC01E656FF4FE491EE2309F43CC034
:10020000222339F1233091F038F42130A9F0223043
:1002100001F584B58F7D12C0273091F02830A1F010
:100220002430B9F4809180008F7D03C080918000DC
:100230008F77809380000DC084B58F7784BD09C00F
:100240008091B0008F7703C08091B0008F7D809344
:10025000B000F0E0EE0FFF1FEA57FF4FA591B491F9
:100260009FB7F894611104C08C913095382302C077
:10027000EC913E2B3C939FBF0895CF93DF9360E0BA
:100280008CE00E94F00060E088E00E94F000C7E08F
:10029000D0E060E084E00E94F0008091D30190E023
:1002A0000C2E02C0959587950A94E2F780FF02C054
:1002B00061E001C060E088E00E94F00061E084E05D
:1002C0000E94F000219728F761E08CE0DF91CF9148
:1002D0000C94F0008CE00E948C0087E00E948C005F
:1002E00088E00E948C0084E00E948C001092D30170
:1002F0000E943D0160E087E00C94F0003FB7F89465
:100300008091320190913301A0913401B091350177
:1003100026B5A89B05C02F3F19F00196A11DB11D60
:100320003FBFBA2FA92F982F8827820F911DA11D9B
:10033000B11DBC01CD0142E0660F771F881F991FD8
:100340004A95D1F708958F929F92AF92BF92CF9224
:10035000DF92EF92FF920E947E014B015C0180E7E9
:10036000C82E87E1D82EE12CF12C0E947E01DC0101
:10037000CB0188199909AA09BB09883E9340A105B8
:10038000B10598F321E0C21AD108E108F10888EE1E
:10039000880E83E0981EA11CB11CC114D104E10495
:1003A000F10419F7FF90EF90DF90CF90BF90AF90DE
:1003B0009F908F900895CF92DF92EF92FF920F93CC
:1003C0001F93CF93DF936C017A018B01C0E0D0E0E3
:1003D000CE15DF0581F0D8016D918D01D601ED912B
:1003E000FC910190F081E02DC6010995892B11F057
:1003F0002196EECF7E01C701DF91CF911F910F9122
:10040000FF90EF90DF90CF900895089580E090E006
:100410000895FC01538D448D252F30E0842F90E00A
:10042000821B930B541710F0CF96089501970895EF
:10043000FC01918D828D981761F0828DDF01A80FEC
:10044000B11D5D968C91928D9F5F9F73928F90E00E
:1004500008958FEF9FEF0895FC01918D828D98177D
:1004600031F0828DE80FF11D858D90E008958FEFBA
:100470009FEF0895FC01918D228D892F90E0805C83
:100480009F4F821B91098F739927089586E391E00E
:100490000E943A0221E0892B09F420E0822F08957E
:1004A000FC01848DDF01A80FB11DA35ABF4F2C9111
:1004B000848D90E001968F739927848FA689B789E0
:1004C0002C93A089B1898C91837080648C93938DD7
:1004D000848D981306C00288F389E02D80818F7D7A
:1004E00080830895EF92FF920F931F93CF93DF9332
:1004F000EC0181E0888F9B8D8C8D981305C0E88975
:10050000F989808185FD26C0F62E0B8D10E00F5FE6
:100510001F4F0F731127E02E8C8DE8120CC00FB601
:1005200007FCFACFE889F989808185FFF5CFCE01F4
:100530000E945002F1CF8B8DFE01E80FF11DE35AAE
:10054000FF4FF0829FB7F8940B8FEA89FB89808177
:1005500080620AC09FB7F894EE89FF896083E889BA
:10056000F98980818370806480839FBF81E090E0FF
:10057000DF91CF911F910F91FF90EF900895CF934E
:10058000DF93EC01888D8823C9F0EA89FB8980819B
:1005900085FD05C0A889B9898C9186FD0FC00FB66D
:1005A00007FCF5CF808185FFF2CFA889B9898C91AE
:1005B00085FFEDCFCE010E945002E7CFDF91CF91B2
:1005C000089580E090E0892B29F00E944602811175
:1005D0000C9400000895FC018081823061F018F4D1
:1005E000813031F00895833049F0843049F0089526
:1005F0006093B30008956093B400089567BD0895B3
:1006000068BD0895FC018081823049F018F4813082
:1006100079F00895833031F0843039F0089524E082
:1006200031E008C027E035E005C026E030E002C038
:1006300023E032E06230A9F0643029F16130B9F58D
:1006400081E090E0AC0101C0440F3A95EAF73091A7
:10065000D301432B01C0880F2A95EAF780958423A4
:1006600022C081E090E0AC0101C0440F3A95EAF766
:10067000342F30954091D301342301C0880F2A953F
:10068000EAF7832B10C041E050E0CA0101C0880F97
:100690003A95EAF701C0440F2A95EAF7842B809532
:1006A0009091D30189238093D3010C943D01089547
:1006B000009769F0FC0101900020E9F73197AF0144
:1006C000481B590BBC0186E391E00C94DB0180E0F0
:1006D00090E008950E94F7061F920F920FB60F92B6
:1006E00011242F933F938F939F93AF93BF93809148
:1006F0002E0190912F01A0913001B09131013091E4
:100700002D0123E0230F2D3720F40196A11DB11DEB
:1007100005C026E8230F0296A11DB11D20932D01CF
:1007200080932E0190932F01A0933001B09331015B
:100730008091320190913301A0913401B091350143
:100740000196A11DB11D8093320190933301A093B6
:100750003401B0933501BF91AF919F918F913F913B
:100760002F910F900FBE0F901F9018951F920F9210
:100770000FB60F9211242F933F934F935F936F9374
:100780007F938F939F93AF93BF93EF93FF9386E3F2
:1007900091E00E945002FF91EF91BF91AF919F9124
:1007A0008F917F916F915F914F913F912F910F901A
:1007B0000FBE0F901F9018951F920F920FB60F92B9
:1007C00011242F938F939F93EF93FF93E091460112
:1007D000F09147018081E0914C01F0914D0182FD43
:1007E00012C0908180914F018F5F8F7320915001D3
:1007F000821751F0E0914F01F0E0EA5CFE4F958FD7
:1008000080934F0101C08081FF91EF919F918F9163
:100810002F910F900FBE0F901F9018951F920F925F
:100820000FB60F9211242F933F934F935F936F93C3
:100830007F938F939F93AF93BF93EF93FF93809199
:100840002C0187FF05C010928500109284001BC008
:1008500020912C01022E000C330B8091F90190E0C5
:100860002817390784F480912C01082E000C990B6D
:10087000FC01EE0FFF1F8E0F9F1FFC01EB52FE4F7E
:10088000808186FD15C080912C018F5F80932C01A3
:1008900020912C01022E000C330B8091F90190E085
:1008A00028173907C4F480912C018C3064F113C0EF
:1008B00080912C01082E000C990BFC01EE0FFF1FFC
:1008C0008E0F9F1FFC01EB52FE4F808160E08F7303
:1008D0000E94F000D8CF809184009091850004960A
:1008E00080349C4918F480E49CE905C08091840020
:1008F00090918500049690938900809388008FEFF3
:1009000080932C013BC02091840030918500809120
:100910002C01082E000C990BFC01EE0FFF1F8E0F0F
:100920009F1FFC01EB52FE4F81819281820F931F2A
:10093000909389008093880080912C01082E000CF0
:10094000990BFC01EE0FFF1F8E0F9F1FFC01EB5256
:10095000FE4F808186FF12C080912C01082E000C72
:10096000990BFC01EE0FFF1F8E0F9F1FFC01EB5236
:10097000FE4F808161E08F730E94F000FF91EF9144
:10098000BF91AF919F918F917F916F915F914F91A7
:100990003F912F910F900FBE0F901F9018951F92AF
:1009A0000F920FB60F9211242F933F934F935F93A3
:1009B0006F937F938F939F93AF93BF93EF93FF9327
:1009C000E0E0F0E00995FF91EF91BF91AF919F9129
:1009D0008F917F916F915F914F913F912F910F90E8
:1009E0000FBE0F901F901895CF931092390110925F
:1009F000380188EE93E0A0E0B0E080933A01909354
:100A00003B01A0933C01B0933D0184E091E09093C1
:100A100037018093360185EC90E0909343018093F9
:100A2000420184EC90E0909345018093440180EC76
:100A300090E0909347018093460181EC90E0909381
:100A400049018093480182EC90E090934B018093A0
:100A50004A0186EC90E090934D0180934C011092F6
:100A60004F011092500110925101109252011092B8
:100A7000D4018091F9018C30A0F491E0980F90930B
:100A8000F9018093380290E0FC01EE0FFF1F8E0FFA
:100A90009F1FFC01EB52FE4F88EB9BE0928381830A
:100AA00003C08FEF809338024EE06EE086E292E062
:100AB0000E94AB004FE06FE084E192E00E94AB0047
:100AC00040E160E182E092E00E94AB0083E080932D
:100AD0000002C1E0C09301020E946A018091D3012B
:100AE0008F758093D3010E943D0184B5836884BDD6
:100AF00017BC86E00E948C0084E08093FE01C093C6
:100B0000FF010E946A018091D3018E7B8093D30103
:100B10000E943D0184B5836284BD18BC85E00E94BB
:100B20008C0082E08093FC01C093FD010E946A0169
:100B30008091D3018D7E8093D3010E943D018091ED
:100B4000B00083628093B000C093B1001092B400F3
:100B500083E00E948C00C093FA01C093FB010E94C5
:100B60006A018091D301837F8093D3010E943D016C
:100B70008091B00083688093B000C093B100109260
:100B8000B3008BE0CF910C948C00789484B5826094
:100B900084BD84B5816084BD85B5826085BD85B521
:100BA000816085BD80916E00816080936E0010929F
:100BB000810080918100826080938100809181001A
:100BC00081608093810080918000816080938000AB
:100BD0008091B10084608093B1008091B000816009
:100BE0008093B00080917A00846080937A00809135
:100BF0007A00826080937A0080917A00816080938D
:100C00007A0080917A00806880937A001092C10007
:100C1000809138028C3008F050C08AE00E948C002D
:100C200080913802E82FF0E09F01220F331FE20F7E
:100C3000F31FEB52FE4F9081907C9A60908310924C
:100C4000390210923A026CE00E94E5069CE0899F0E
:100C5000B001112440E050E09B01240F351FF90141
:100C6000EE0FFF1F2E0F3F1FF901EB52FE4F908139
:100C700096FD16C04F5F5F4F4C30510569F78111EB
:100C80000FC01092800082E0809381001092850056
:100C900010928400B19A80916F00826080936F00FF
:100CA000E0913802F0E0CF01880F991FE80FF91F9B
:100CB000EB52FE4F808180648083E0914601F09189
:100CC000470182E08083E0914201F091430110826C
:100CD000E0914401F09145018FEC808310924E0128
:100CE000E0914A01F0914B0186E08083E091480158
:100CF000F0914901808180618083E0914801F09109
:100D00004901808188608083E0914801F091490128
:100D1000808180688083E0914801F0914901808161
:100D20008F7D808364E68CEF91E00E94EB0264E6A5
:100D30008AEF91E00E94EB0264E680E092E00E947C
:100D4000EB0264E68EEF91E00E94EB020E94A301A9
:100D500082E191E00E9458038BE191E00E945803E8
:100D600061E08CEF91E00E94020361E08AEF91E084
:100D70000E94020361E080E092E00E94020361E0D1
:100D80008EEF91E00E9402030E94A3018EE191E0A8
:100D90000E9458038BE191E00E94580364E08CEFBD
:100DA00091E00E94020364E08AEF91E00E94020356
:100DB00064E080E092E00E94020364E08EEF91E044
:100DC0000E9402030E94E102C1CF991B79E004C096
:100DD000991F961708F0961B881F7A95C9F780957A
:100DE0000895EE0FFF1F0590F491E02D099481E026
:0C0DF00090E0F8940C94FC06F894FFCFFF
:100DFC00000000007202DB010902BF023A02180275
:100E0C002C025374617274696E67000D0A0053747E
:080E1C00617274696E67210028
:00000001FF
